:020000040800F2
:10000000B0040020AD010008630E0008E30C0008F6
:10001000610E0008C90200089110000800000000ED
:10002000000000000000000000000000670E000853
:10003000CB02000800000000650E0008690E0008F1
:10004000C7010008C7010008C7010008C701000870
:10005000C7010008C7010008C7010008C701000860
:10006000C7010008C7010008C7010008C701000850
:10007000C7010008C7010008C7010008C701000840
:10008000C7010008C7010008C70100080000000000
:10009000000000000000000000000000C701000890
:1000A000C7010008C7010008C7010008C701000810
:1000B000C7010008C7010008C7010008C701000800
:1000C000C7010008C7010008C7010008C7010008F0
:1000D000C7010008C7010008C701000800000000B0
:1000E000C7010008C7010008C701000800000000A0
:1000F000000000000000000000000000C701000830
:1001000000000000C7010008C7010008C70100087F
:1001100000000000000000000000000000000000DF
:10012000C7010008C7010008C7010008C70100088F
:10013000C7010008000000000000000000000000EF
:10014000000000000000000000000000C7010008DF
:10015000C7010008C7010008C7010008C70100085F
:10016000C7010008C70100080000000000000000EF
:10017000000000000000000000000000000000007F
:1001800000000000C701000800000000000000009F
:10019000C7010008C7010008DFF80CD000F082F8A2
:1001A0000048004785120008B00400200648804738
:1001B00006480047FEE7FEE7FEE7FEE7FEE7FEE74C
:1001C000FEE7FEE7FEE7FEE7FD0E000899010008E6
:1001D0002DE9F05F0546002092469B46884606467C
:1001E000814640241BE0284641464746224600F00F
:1001F00048F853465A46C01A914110D31146184642
:10020000224600F02FF82D1A67EB01084F462246D0
:100210000120002100F026F817EB00094E41201EB6
:10022000A4F10104DFDC484631462A464346BDE8D6
:10023000F09FD2B201E000F8012B491EFBD27047BB
:100240000022F6E710B513460A4604461946FFF7A2
:10025000F0FF204610BD421C10F8011B0029FBD105
:10026000801A7047202A04DB203A00FA02F10020AD
:1002700070479140C2F1200320FA03F319439040E4
:100280007047202A04DB203A21FA02F0002170474F
:1002900021FA02F3D040C2F12002914008431946EE
:1002A00070470000064C074D06E0E06840F001038F
:1002B00094E8070098471034AC42F6D3FFF770FF7C
:1002C000EC1200080C130008FEE770472DE9F84F08
:1002D000DFF8B8A1002201240AF1040B03254FF036
:1002E0000F090BF1040E00BF0B6804FA02F633404D
:1002F000B34273D10F7907F00307012F01D0022F0A
:1003000016D187684FEA420805FA08FC27EA0C076D
:10031000D1F80CC00CFA08FC4CEA070CC0F808C075
:100320004768B7430E79C6F3001696403E434660D1
:100330000E79F643B6070DD0C768560005FA06FCDD
:1003400027EA0C07D1F808C00CFA06FC4CEA070CA7
:10035000C0F80CC00E7906F00306022E10D1D608A4
:1003600000EB8608D8F8206057074FEAD76C09FAE7
:100370000CF7BE430F6907FA0CF73743C8F8207033
:1003800006684FEA420C05FA0CF7BE430F7907F0F6
:10039000030707FA0CF7374307604E6816F4403F2F
:1003A0006DD03B4E376847F480473760366822F09F
:1003B000030706F480460096364E07EB060CDCF881
:1003C000086897073F0F09FA07F826EA0806DFF8DA
:1003D000C880404503D14FF000081EE04FE0DFF831
:1003E000BC80404502D14FF0010816E0DFF8B08034
:1003F000404502D14FF002080FE0DFF8A8804045E9
:1004000002D14FF0030808E0DFF89C80404502D19C
:100410004FF0040801E04FF0070808FA07F848EA2F
:100420000608CCF80888DAF800605746D1F804C00E
:100430009E435FEACC3C00D51E433E60DBF8006083
:100440005F46D1F804C09E435FEA8C3C00D51E4352
:100450003E60DEF800607746D1F804C09E435FEA54
:10046000CC2C00D51E433E60084F0C373E68D1F8B7
:1004700004C09E435FEA8C2C00D51E433E60521C94
:10048000102AFFF431AFBDE8F88F0000003C0140B6
:1004900044380240003001400000024000040240A5
:1004A00000080240000C02400010024000690840B1
:1004B00000D001207047426921EA02030A4043EA62
:1004C0000241816170470AB1816170470904FBE70D
:1004D00001488068704700002400002002488168BD
:1004E0000278114481607047240000200B4810B549
:1004F000016841F400710160016841F480610160AC
:10050000016841F480710160032000F061F800206F
:1005100000F006F800F024F8002010BD003C024076
:1005200070B50D4D04464FF47A712878B1FBF0F0A8
:100530000A490968B1FBF0F000F0FEFA48B9102C46
:1005400007D200222146501E00F022F800206C60E5
:1005500070BD012070BD000024000020300000208C
:100560000A4808B5016841F480410160006800F460
:10057000804000900548001F016841F080510160F3
:10058000006800F08050009008BD00004438024030
:10059000F0B40E4B1B680C46C3F30223C3F10705EE
:1005A000042D00D90425191D072901D2002300E0DC
:1005B000DB1E012606FA05F1491E214099409E40A6
:1005C000761E16403143F0BC00F076BD0CED00E025
:1005D000064900F0070208684FF6FF03184040EA9A
:1005E0000220034A10430860704700000CED00E051
:1005F0000000FA052DE9F0470E46050065D0DFF84A
:100600001481D8F80000F7B200F00700B04207D21A
:1006100088F80070D8F8000000F00700B04254D10C
:1006200028683D4C810712D5400703D5206840F467
:10063000E05020602878000703D5206840F460402F
:1006400020602068A96820F0F00008432060287826
:10065000C0072DD0304968680839012812D0022817
:1006600013D0032811D00968890700292DDA2168E1
:1006700021F0030101432160FFF72AFF814641F287
:10068000883A0EE009688903EFE709688901ECE719
:10069000FFF71EFFA0EB0901514502D90320BDE879
:1006A000F0872068696800F00C00B0EB810FEFD193
:1006B000D8F80010404601F00701B14207D9077091
:1006C000006800F00700B04201D00120E7E7287879
:1006D000400705D52068E96820F4E0500843206011
:1006E0002878000706D52068296920F4604040EA90
:1006F000C100206000F038F82168084AC1F30311F6
:10070000515CC8400649086006480068FFF708FFCA
:100710000020C4E7003C024008380240D412000820
:1007200030000020280000200448054900680968BE
:10073000044AC1F38221515CC84070473000002058
:1007400008380240E41200080448054900680968B6
:10075000044AC1F34231515CC84070473000002068
:1007600008380240E4120008154810B5006810F07F
:100770000C02144813D01449042A0FD0082A0ED1B1
:100780000F4C241F2268236802F03F025B0207D54A
:100790002068C0F38810A0FB010106E0084610BDE8
:1007A0002168C1F38811A1FB00010023FFF710FDB0
:1007B0002168C1F30141491C4900B0FBF1F010BDB3
:1007C000083802400024F40040787D012DE9F84FFC
:1007D00004006ED02078DFF84C93C007A9F104051F
:1007E0004AD009F104000168C1F38101012908D050
:1007F0000068C0F3810002280AD1D9F80000400245
:1008000006D52868800337D560680028E1D033E03A
:100810006068B0F5803F10D0B0F5A02F286810D0E8
:1008200020F480302860286820F4802028606068E8
:10083000A8B1FFF74DFE06460DE0286840F4803071
:10084000F4E740F480202860F7E700BFFFF740FEA0
:10085000801B642873D828688003F7D50CE0FFF765
:1008600037FE064605E000BFFFF732FE801B642816
:10087000F0D828688003F7D42078DFF8AC828007AE
:100880004FF0000A3ED5A748001D016811F00C0F7B
:1008900008D00068C0F3810002280BD1D9F800000D
:1008A000400207D42868800716D5E068012800D1E7
:1008B00012E033E1E068B8B10120C8F80000FFF7AA
:1008C00007FE064605E000BFFFF702FE801B022878
:1008D000C0D828688007F7D52868216920F0F8007B
:1008E00040EAC10028600DE0C8F800A0FFF7F0FD65
:1008F000064604E0FFF7ECFD801B02281FD828689D
:100900008007F7D42078000722D5864F8748616991
:10091000703771B101210160FFF7DAFD064604E08E
:10092000FFF7D6FD801B022809D838688007F7D565
:100930000EE0C0F800A0FFF7CBFD064605E082E020
:10094000FFF7C6FD801B02287DD838688007F7D4E2
:100950002078400768D5DFF8CCB100270BF13C0BBD
:10096000DBF80000C0000BD4DBF8001041F0805130
:10097000CBF80010DBF80000012700F08050009059
:100980006B4E3068C00510D4306840F48070306021
:10099000FFF79EFD009005E0FFF79AFD0099401AD1
:1009A000022850D83068C005F6D55E4EA0686C3677
:1009B00001280FD00528306810D020F001003060E9
:1009C000306820F004003060A068B8B1FFF780FD07
:1009D00000900FE0306840F00100F4E740F00400C0
:1009E0003060F7E7FFF774FD0099411A41F2883053
:1009F000814266D830688007F4D50EE0FFF768FDC5
:100A0000009007E0FFF764FD0099411A41F2883039
:100A1000814256D830688007F4D42FB1DBF800103B
:100A200021F08051CBF80010A069C8B33D49091DE1
:100A30000968C1F3810102294AD00228504607D033
:100A4000C8F8600000E03CE0FFF742FD04463BE0F0
:100A50004746C8F86000FFF73BFD064605E000BFCB
:100A6000FFF736FD801B02282BD828688001F7D4B9
:100A7000D4E907010843A16A2E4A490802EB014163
:100A8000626A41EA8211084394F82C1040EA01613D
:100A9000C9F8001001203866FFF71AFD044606E089
:100AA0003EE000BFFFF714FD001B022809D82868AC
:100AB0008001F7D534E000BFFFF70AFD001B0228D4
:100AC00002D90320BDE8F88F28688001F4D427E01C
:100AD0000128F7D0D9F80000E26900F480019142C2
:100AE0001CD1226A00F03F01914217D147F6C07134
:100AF000626A0140B1EB821F10D1A26A4FF0FF334E
:100B000000F4403103EB5202B1EB024F06D194F8EE
:100B10002C1000F07060B0EB016F01D00120D1E724
:100B20000020CFE70438024000004742800E4742D1
:100B3000007000400000FFFF10B5401EB0F1807F44
:100B400001D3012010BD4FF0E02460610F21601738
:100B500000F0B2FA0020A06107202061002010BD43
:100B600070B5040004D094F83D00002510B106E0F3
:100B7000012070BD84F83C50204600F023F824206A
:100B800084F83D002068C16821F40051C16020460E
:100B900000F0BCF92068016921F4904101612068EE
:100BA000416921F02A0141612068C16841F4005186
:100BB000C1602564202084F83D0084F83E000020B8
:100BC00070BD000010B586B0044614216846FFF7DA
:100BD00037FB14492068884221D11348002102685C
:100BE00042F010020260006800F0100005900E480C
:100BF0001438026842F001020260006800F001004F
:100C000005904FF4C06000900220CDE9010103205F
:100C100003900720049069460448FFF757FB06B08D
:100C200010BD0000001001404438024000000240A6
:100C30002DE9F843044690F83D001F4616460D4640
:100C400020284CD1C5B1BEB194F83C00012846D053
:100C5000012084F83C004FF00008C4F840802120B7
:100C600084F83D00FFF734FCA6848146E684A06842
:100C7000B0F5805F03D004E00120BDE8F88320696F
:100C800028B12E465FF0000584F83C800EE0002677
:100C9000FAE78021204600F0BFF9A0B9AEB116F8FE
:100CA000010B21684860E08C401EE084E08C4B46DC
:100CB0004FF0000200970028EBD14FF04001204692
:100CC00000F0AAF930B10320D7E735F8020BC0F3E2
:100CD0000800E6E7202084F83D000020CDE7022050
:100CE000CBE7FEE72DE9F041FFF7F2FB224CA168CC
:100CF000401AE168884229D3FFF7EAFB1F4DA06044
:100D0000012208212846FFF7DEFB01221C4F560373
:100D100031463846FFF7D7FB207818B10026012866
:100D200028D115E0002231463846FFF7CCFB15A14B
:100D3000194800F0AFF91848FFF78DFA82B20A237C
:100D400015491648FFF774FF01202070BDE8F081B7
:100D5000002208212846FFF7B6FB11A10E4800F03B
:100D600099F90D48FFF777FA82B20A230A490B482E
:100D7000FFF75EFF2670E9E7000000200000024058
:100D8000000802404C454420504331332069732011
:100D90004F4E0D0A000000007800002034000020B3
:100DA0004C454420504133206973204F4E0D0A00BA
:100DB00010B5034CE060FFF78BFBA06010BD000096
:100DC00000000020F0B587B014216846FFF738FA1C
:100DD00020480024016841F004010160016801F02D
:100DE00004010591016841F080010160016801F092
:100DF00080010591016841F0010101600068012254
:100E000000F00100144E5503059029463046FFF7C7
:100E10005AFB124F012258213846FFF754FB009528
:100E20000125CDE90154694630460394FFF74EFA97
:100E300058200090CDE90154694638460394FFF7E5
:100E400045FA20208DE8310069463846FFF73EFA22
:100E500007B0F0BD303802400008024000000240F8
:100E6000FEE7FEE770477047FFF738BB30B593B039
:100E700030216846FFF7E4F914210CA8FFF7E0F9E8
:100E80001C480025016841F080510160006800F0B5
:100E9000805011901848016841F440410160006899
:100EA000022400F4404011900120009000040190C1
:100EB0008001CDE906400C2008904820CDE90904C6
:100EC00004200B906846FFF781FC08B172B6FEE77C
:100ED0000CA90F2081E831004FF48050CDE90F05B7
:100EE00002210CA8FFF786FB002801D072B6FEE7AE
:100EF00013B030BD40380240007000400248016825
:100F000041F470010160704788ED00E070B504465F
:100F100000680169E26821F44051114301612169CF
:100F2000A068E26908436169114308432168CA68FF
:100F300049F20C639A430243CA6020684169A2697E
:100F400021F440711143416131492068884202D047
:100F50003049884202D1FFF7F7FB01E0FFF7E4FBDD
:100F6000E2690023192164253226B2F5004F626838
:100F700028D0A0FB0101930F9200FFF729F9014649
:100F8000B0FBF5F06FF01802504301EB800006EB68
:100F90000010B0FBF5F000F0F002B1FBF5F002EB51
:100FA0000012B1FBF5F06FF01803584301EB80001D
:100FB00006EB0010B0FBF5F000F00F0021681044C4
:100FC000886070BDA0FB010192185B41FFF700F93A
:100FD0000146B0FBF5F00201B1FBF5F06FF018032C
:100FE000584301EB800006EBC000B0FBF5F000F0C9
:100FF000F80002EB4002B1FBF5F0584301EB800032
:1010000006EBC000B0FBF5F000F00700D6E70000EB
:1010100000100140001401402DE9F04198461746A8
:101020000E460446069D27E0681C25D02DB1FFF72B
:101030004FFAA0EB0800A8421ED920680C3050E8F7
:10104000001F21F4D07140E80012002AF5D1206879
:10105000143050E8001F21F0010140E80012002A7E
:10106000F5D1202084F83D0084F83E00002084F86B
:101070003C000320BDE8F0812068006836EA0000EB
:1010800004D00020B842CFD00020F3E70120F9E7D8
:10109000FEE700000FB4084610B5064A02A900F0AA
:1010A0002AF8044602A9002000F036F8204610BCB9
:1010B0005DF814FB191100080907090E002804DB6C
:1010C00000F1E02080F80014704700F00F0000F1FC
:1010D000E02080F8141D704702E008C8121F08C104
:1010E000002AFAD170477047002001E001C1121FA9
:1010F000002AFBD170472DE9F04116460F46044601
:10110000002503E03946B047641C6D1C2078002898
:10111000F8D12846BDE8F0810A68531C0B601070B6
:1011200070470000064801218171427922B1012AED
:1011300004D0022A01D10021417170470221FBE74E
:101140000000002070B520212048FFF7AFF9204CA7
:101150000126A178884204D0A070E670FFF7B8F9A4
:10116000A061E078002540B1FFF7B2F9A169401A0B
:101170000F2802D3A0786061E570617860698842C9
:101180000ED0E0B1FFF7A4F92169401AB0F57A7FDB
:1011900001D80320A07125710220A071207D60700C
:1011A000207900280AD0FFF793F92169401A40F608
:1011B000B831884202D30420A071257170BD267118
:1011C000FFF7B0FFFFF784F92061E7E70000024076
:1011D0000000002010B5FFF77BF9074CE169401AC9
:1011E000B0F5FA7F06D310210448FFF764F9FFF742
:1011F0006FF9E06110BD0000000000200000024017
:1012000010B5FFF765F9064C216A401A642806D329
:1012100040210448FFF74FF9FFF75AF9206210BD4B
:1012200000000020000002400C4810B5407960B179
:1012300001280ED0022810D1012210210848FFF702
:1012400042F9BDE81040FFF7DBBFBDE8104000F0F9
:1012500009B8BDE81040FFF7BDBF10BD0000002079
:101260000000024010B5064C012210212046FFF775
:101270002AF920460122BDE810404021FFF723B99A
:1012800000000240FFF732F9FFF7F0FDFFF79AFD8B
:101290000F480E490C2201604FF4E13141600021FA
:1012A0008160C160C0E904128161C161FFF758FC2F
:1012B00008B172B6FEE76420FFF77AFDFFF712FD72
:1012C000FFF740FFFFF7B0FFF8E700000010014014
:1012D00034000020000000000000000001020304B0
:1012E0000607080900000000010203040C130008AF
:1012F0000000002034000000D8100008401300084F
:10130000340000207C040000E81000080001010007
:1013100000000000000000000000000000000000CD
:1013200001000000000000000000000000000000BC
:101330000100000010000000000000000024F40084
:040000050800019955
:00000001FF
